:040000000128F82FAC
:100EE80020000E1C792F0C157A2F0C118E1C7E2FCA
:100EF8008C157F2F8C110E1D832F0C16842F0C122E
:100F08008E1D882F8C1608008C12080020000E1CDD
:100F1800932F01307404F40000307504F5008E1C22
:100F28009B2F02307404F40000307504F5000E1D88
:100F3800A32F04307404F40000307504F5008E1DEE
:100F4800AB2F08307404F40000307504F5000E1E51
:100F5800080010307404F40000307504F50008002F
:100F68007030210099008C011F308E0023008C0105
:100F78008E0122001D1520008C018E0124302300D3
:100F88009E009D179F119C0133309B001A30F6007C
:100F9800F830890BCD2FF60BCD2F003274278A2716
:100FA80073087506031DDA2F720874060319E32FF8
:100FB8003430F600F230890BDF2FF60BDF2F2000DC
:100FC800111EE32F740823009A007508F3007408B3
:100FD800F200F401F5011A30F600F830890BF22F0F
:100FE800F60BF22F0032D22FF001F101F201F301DA
:080FF800F401F5012000B42F03
:020000040001F9
:04000E00A4CFFFFE7E
:00000001FF
