:040000008031222801
:100008007E14803120007F08FB00911E1D282300EC
:100018009D1C12289D0190309D001D281908F9008B
:10002800FA017908F6007A08F700F801F80A2000C2
:1000380091127B082000FF007E10090080312428DF
:10004800F001F101F201F301F401F501F601F70104
:10005800F801A001A1017E10200080313328723000
:10006800210099008031C4208031903023009D0008
:100078001E129F111E1533309B0020009112210083
:1000880091160B178B171A302000A200F830890B35
:100098004B28A20B4B2800007803031DBA28013017
:1000A8007605F40000307705F50077082000A300F6
:1000B8007608A200230DA30CA20C01302205F20041
:1000C80000302305F3007708A3007608A200230D6B
:1000D800A30CA20C230DA30CA20C01302205F000E6
:1000E80000302305F1007708A3007608A200230D4D
:1000F800A30CA20C230DA30CA20C230DA30CA20C81
:1001080001302205A00000302305A100700371040E
:1001180003190E1D922822008C14942822008C109A
:1001280020002003210403198E1D9D2822000C168F
:100138009F2822000C1272037304031DA9282000B3
:100148008E1CA92822000D14AB2822000D10740360
:100158007504031DB52820000E1CB52822008D1437
:10016800B72822008D10F601F701F8017208730410
:10017800031DC12822000C14502822000C105028FE
:1001880020008C018D018E0123008C018D0121003E
:0C0198008C018D01AF308E009015080026
:020000040001F9
:04000E0084CFFFDAC2
:00000001FF
