:0400000080314728DC
:100008007E14803120007F08F000111C14288B1109
:10001800C401C40AC5019601970118108B15111067
:100028000B1C2A282700961D29289611200018182D
:100038001F281814292818101608C7001708C80000
:10004800C90196019701C501C50A0B102000911C32
:100058003C288C1D3128FA3032287D302800960043
:1000680020000D1428001715063020009A00911062
:10007800931C43280D1028001711200093107008B6
:10008800FF007E10090080314928843155248031D1
:10009800FC00843151248031CA00843152248031DB
:1000A800CB00843153248031CC00843154248031F6
:1000B800CD003630840000308500143084314B2464
:1000C8007E102000803168287030210099002200BD
:1000D8009D139E01283021008C0023008C010A30DA
:1000E80021008D0023008D0120008C018D01270047
:1000F8009415950196010B10210011143030200041
:100108009800243023009E009D179F119C013330D6
:100118009B004E3020009C00FF309B0006302800DA
:100128009700210091149314063020009A00BC30E7
:100138002800960020001C15280017112000911097
:1001480093108B150B178B1723009E1CC5280D3099
:100158002000B500FB30890BAF28B50BAF28003263
:10016800200046084A3E86008701010823009A00BD
:1001780001302000B5003508C607043046060319CB
:10018800C60120004503031D72294408031D722976
:100198004708F9004808FA004908FB00843136246A
:1001A800803179082000A1007A08A2007B08A3000A
:1001B8009330A4002C30A5004830A60082313722A5
:1001C800803120002108BD002208BE002308BF009E
:1001D8003D08F1003E08F2003F08F3008231E022BA
:1001E800803173082000BC007208BB007108BA0097
:1001F8006430F1000030F2000030F3003A08F400F7
:100208003B08F5003C08F6008331CB2380317208A7
:100218002000C3007108C2000A30F1000030F2006B
:100228004308F4004208F300843102248031710845
:1002380030382000B5003508CB000A30F100003016
:10024800F2000030F3003A08F4003B08F5003C08DF
:10025800F6008331CB238031710830382000B50097
:100268003508CC000030A0002030A1004130A200A9
:100278003D08A3003E08A4003F08A5008131832162
:10028800803120002008BD002108BE002208BF00E0
:100298003D08F1003E08F2003F08F3008231E022F9
:1002A800803173082000BC007208BB007108BA00D6
:1002B8000A30F1000030F2000030F3003A08F40090
:1002C8003B08F5003C08F6008331CB2380317108E8
:1002D80030382000B5003508CD00C5014403031DA2
:1002E800A8283030B5003508CB003030B5003508C7
:1002F800CC003030B5003508CD00C401A828200056
:100308002008A6002108A7002208A8000310270D2E
:10031800280DA9002908AA002A08031D9A290030D7
:10032800A0000030A1000030A20008002308A600A9
:100338002408A7002508A8000310270D280DA900E8
:100348002908AF002F08031DB0290030A000003095
:10035800A1000030A20008002F087B3EA600260856
:10036800AA072008A6002108A7002208A800103024
:10037800A836A70CA60C890BBC292608A9002908B1
:10038800AF002308A6002408A7002508A8001030FD
:10039800A836A70CA60C890BCC292608A900290881
:1003A800AF068030A6002608AF05A117A417FF30B6
:1003B800A305FF30A4050030A5050030AB000030D0
:1003C800AC000030AD000730A6002608AE00201CA7
:1003D800F3292308AB072408AC3D2508AD3D0130BF
:1003E800A236A10CA00C890BF4290130A335A40D69
:1003F800A50D890BFA290130AE02031DEB2909303E
:10040800A6002608AE00201C0F2A2308AB072408E4
:10041800AC3D2508AD3D0130A236A10CA00C890BDE
:10042800102A0130AD36AC0CAB0C890B162A013002
:10043800AE02031D072A2B08F1002C08F2002D0834
:10044800F3002A08A6002608F4002F08A7002708AA
:10045800F5008331672371082000A0007208A1000D
:100468007308A200080020002408A7002508A80097
:100478002608A9000310280D290DAA002A08AF0094
:100488002F08031D4E2A0030A1000030A2000030C2
:10049800A30008002108A7002208A8002308A90033
:1004A8000310280D290DAA002A08B0003008031DE2
:1004B800642A0030A1000030A2000030A300080028
:1004C8000030AC000030AD000030AE00893030079D
:1004D800A7002708AF022408A7002508A8002608B7
:1004E800A9001030A936A80CA70C890B762A270872
:1004F800AA002A08B0002108A7002208A80023089B
:10050800A9001030A936A80CA70C890B862A270841
:10051800AA002A08B0068030A7002708B005A5174A
:10052800FF30A405FF30A5050030A605A217FF304F
:10053800A105FF30A2050030A3051830A700270841
:10054800AB000130AC35AD0DAE0D890BA62A2308E2
:100558002602031DB52A22082502031DB52A2108F3
:100568002402031CBE2A2108A4022208A53B230852
:10057800A63B2C140130A435A50DA60D890BBF2A66
:100588000130AB02031DA52A2C08F1002D08F2004A
:100598002E08F3002F08A7002708F4003008A80049
:1005A8002808F5008331672371082000A10072082C
:1005B800A2007308A30008007108F5007208F6008D
:1005C8007308F7000310760D770DF80078082000FF
:1005D800A5002508031DF92A0030F4000030F300B7
:1005E8000030F2000030F10008007108F5007208D0
:1005F800F6007308F7001730F736F60CF50C890B80
:10060800002B7508F8007808A000F217FF30F105F4
:10061800FF30F2050030F3057108A1007208A2004E
:100628007308A300A4018E30A502A51F372B250847
:10063800803A8F3E0318292B0030F4000030F30075
:100648000030F2000030F10008000130A436A30C9D
:10065800A20CA10C890B2A2B0130F5007508A507FF
:100668000319502B292B18302502031C4D2B003061
:10067800F4000030F3000030F2000030F100080010
:100688000130A135A20DA30DA40D890B452B013016
:10069800A5022508031D442B200803195E2BA10978
:1006A800A209A309A409A10A0319A20A0319A30A02
:1006B8000319A40A2408F4002308F3002208F2000E
:1006C8002108F1000800740803196F2B73087204DD
:1006D8007104031D802B0030F1000030F20000305F
:1006E800F30008000130F6007608F4070130F3360D
:1006F800F20CF10C890B7B2BFE3073050319992B37
:10070800762B0130F6007608F4070130F107003047
:1007180003180130F207003003180130F3070130E5
:10072800F336F20CF10C890B942BFF307305031987
:10073800A62B852B0130F4020130F135F20DF30DB3
:10074800890BA12BF21BAC2B0230740203189E2BD1
:100758007418B42BFF30F1057F30F205FF30F30534
:100768000310F40C7408F600F701F8011030F635A0
:10077800F70DF80D890BBB2B7608F1047708F20406
:100788007808F304750803190800F31708007308BC
:10079800720471040319FB2BF801F80AF31BDF2B11
:1007A8000130F135F20DF30D890BD52B0130F7002F
:1007B8007708F807D22B73087602031DE92B720815
:1007C8007502031DE92B71087402031CF12B7108D3
:1007D800F4027208F53B7308F63B0130F336F20C6D
:1007E800F10C890BF22B0130F802031DDF2B740882
:1007F800F1007508F2007608F3000800F601F70129
:10080800710872040319312CF801F80AF21B162C2E
:100818000130F135F20D890B0D2C0130F50075080A
:10082800F8070A2C0130F635F70D890B172C7208DA
:100838007402031D212C71087302031C282C7108F3
:10084800F3027208F43B76140130F236F10C890B8E
:10085800292C0130F802031D162C7708F2007608BF
:10086800F10008007908F1007A08F2007B08F3002B
:100878008E302000A0002008F400F50183316723A2
:100888007108F9007208FA007308FB000800640098
:1008980080010131890B4C2C0034FF343034303462
:0408A80030340134B3
:020000040001F9
:04000E00A4CFFFFE7E
:00000001FF
