:040000008031222801
:100008007E14803120007F08F200911E1D282300F5
:100018009D1C12289D0190309D001D281908F00094
:10002800F10170082000C4007108C500CC01CC0A99
:10003800911272082000FF007E10090080312428E8
:10004800113084008430850020308600003087001D
:10005800153084316824F901FA01C401C501C601CB
:10006800C701C801C901CA01CB01CC017E1020001B
:100078008231AF2A20002408D03EF900FF30253D08
:10008800FA002208D03EC800FF30233DC9002008EE
:10009800D03EC600FF30213DC70079087A04031D11
:1000A8005D287B30F3008430F40030308331F7234F
:1000B800803179037A04031D69287D30F300843088
:1000C800F40030308331F7238031023079067A0426
:1000D800031D76287F30F3008430F40030308331FC
:1000E800F7238031033079067A04031D8328813091
:1000F800F3008430F40030308331F723803104304A
:1001080079067A04031D90288330F3008430F400C4
:1001180030308331F7238031053079067A04031DA6
:100128009D288530F3008430F40030308331F72384
:100138008031063079067A04031DAA288730F30037
:100148008430F40030308331F7238031073079066A
:100158007A04031DB7288930F3008430F400303066
:100168008331F7238031083079067A04031DC428C7
:100178008B30F3008430F40030308331F723803142
:10018800093079067A04031DD1288D30F3008430B4
:10019800F40030308331F7238031200048084904C7
:1001A800031DDE287B30F3008430F4002B308331CC
:1001B800F7238031200048034904031DEB287D30D4
:1001C800F3008430F4002B308331F7238031023080
:1001D800200048064904031DF9287F30F3008430C5
:1001E800F4002B308331F723803103302000480698
:1001F8004904031D07298130F3008430F4002B30B3
:100208008331F72380310430200048064904031D58
:1002180015298330F3008430F4002B308331F72321
:1002280080310530200048064904031D2329853004
:10023800F3008430F4002B308331F723803106300B
:10024800200048064904031D31298730F300843013
:10025800F4002B308331F723803107302000480623
:100268004904031D3F298930F3008430F4002B3002
:100278008331F72380310830200048064904031DE4
:100288004D298B30F3008430F4002B308331F72371
:1002980080310930200048064904031D5B298D3050
:1002A800F3008430F4002B308331F72380312000B1
:1002B80046084704031D68297B30F3008430F400A6
:1002C80026308331F7238031200046034704031D7D
:1002D80075297D30F3008430F40026308331F7230C
:1002E80080310230200046064704031D83297F30F1
:1002F800F3008430F40026308331F7238031033053
:10030800200046064704031D91298130F3008430FC
:10031800F40026308331F72380310430200046066C
:100328004704031D9F298330F3008430F4002630EE
:100338008331F72380310530200046064704031D2A
:10034800AD298530F3008430F40026308331F7235B
:1003580080310630200046064704031DBB2987303C
:10036800F3008430F40026308331F72380310730DE
:10037800200046064704031DC9298930F30084304C
:10038800F40026308331F7238031083020004606F8
:100398004704031DD7298B30F3008430F40026303E
:1003A8008331F72380310930200046064704031DB6
:1003B800E5298D30F3008430F40026308331F723AB
:1003C80080312B30F3000030F40030308331AE231D
:1003D80080317930F3008430F40030308331AE233B
:1003E80080312630F3000030F40030308331AE2302
:1003F8000800F8001030F7007808860087017708B1
:100408008100023020003602031C0E2A780886007C
:10041800870181153608F7007808043E86008701B1
:10042800770881003508F7007808053E86008701BF
:100438007708810004303706031D262A78088600CD
:10044800870101157808063E860087018101403042
:10045800F7007808073E860087017708810035088D
:10046800F7007808083E860087017708810035087C
:10047800403EF7007808093E86008701770881002A
:100488008230F700DE30890B472AF70B472A220013
:100498000C100C118C107808860087010108203890
:1004A80084316E2481310C30F700AF30890B5A2A21
:1004B800F70B5A2A000078088600870101082038BF
:1004C80084316E2481318530890B682A00007808D0
:1004D800860087010108203884316E24813178082C
:1004E800860087010108203884316E248131043068
:1004F800F700780A8600870177088100780A860065
:1005080087010108083884316E2481310130843133
:100518006E2481310630F7003030890B912AF70BB1
:10052800912A00320230F7007808023E86008701DF
:10053800770881007808023E8600870101080438A0
:1005480084316E240430F7007808033E8600870162
:10055800770881000800723021009900903023004C
:100568009D001E129F111E1533309B002000911212
:10057800210091160B178B178431542482311030C7
:100588002000B8003808B5000230B9003908B600B4
:10059800B7013A308131FD2182312000CA01CB01F7
:1005A8004B08803AB80080303802031DDD2A043039
:1005B8004A0203181C2B20004C080319DF2ACC011F
:1005C8004A084B04031DF12A440A45040319F12A79
:1005D800FF30CA07FF30CB3D0D2B4A034B04031DE8
:1005E800FA2A4508A5004408A4000D2B02304A0643
:1005F8004B04031D042B4508A3004408A2000D2B3F
:1006080003304A064B04031D0D2B4508A10044087E
:10061800A0000130CA070030CB3D4B08803AB80033
:1006280080303802031D1A2B04304A02031CDF2ACB
:1006380084313A24823180313E208231F701F80139
:100648003A308331D32382313030F7000030F8005C
:10065800843126248231F701F801F80A3A308331CF
:10066800D32382317430F7008430F8008431262493
:100678008231D12AF50022000C11731C462B22006E
:100688000C14482B22000C108C10751C4E2B2200C9
:100698008D17502B22008D137508F4000130F436A5
:1006A800890B532B741C5B2B22000D175D2B22002A
:1006B8000D137508F4000230F436890B602B741C96
:1006C800682B22008D166A2B22008D127508F40003
:1006D8000330F436890B6D2B741C752B22000D1614
:1006E800772B22000D127508F4000430F436890BBC
:1006F8007A2B741C822B22008D15842B22008D11DD
:100708007508F4000530F436890B872B741C8F2B81
:1007180022000D15912B22000D117508F4000630EA
:10072800F436890B942B741C9C2B22008D149E2B61
:1007380022008D107508F4000730F436890BA12BC0
:10074800741CA92B22000D14AB2B22000D10843130
:1007580047240800F7007708F5007508F6007608C2
:100768008600870101080319C62B0130F5007508BA
:10077800F607B32B0130F5007508F6070130F307CB
:100788000030F43D760886008701730884007408F9
:1007980085000008C03F890803190800BE2B200007
:1007A800B60005307802031CDD2B0430B50035088F
:1007B800F8003608043E860087017808010203180D
:1007C800EA2B360886008701443FF8007808063E81
:1007D8003607B50035088600870101087707803895
:1007E80084316E240800F7007708F5007508F600D4
:1007F800760886008701730884007408850000085D
:10080800C03F8908031908000130F5007508F6078C
:100818000130F3070030F43DFC2B30340034303421
:10082800003430340034703461347234613400344C
:100838007034613472346134003470346134723429
:1008480061340034770884007808850012000319A1
:10085800080077088400780885000008843161243E
:1008680084310130F7070030F83D262C01308431FF
:100878006E2484310630F7003030890B412CF70B99
:10088800412C0032080022000C11003222000C1505
:10089800003222000C114230890B502C0032080023
:1008A80020008C018D018E0123008C018D01210017
:1008B8008C018D0180308E000800F600F301F30AE8
:1008C800760883313E230800FE0012001E00FE0B4E
:1008D800692C0034F600F301760883313E230800C2
:1008E8006B346D342F34683400342E340034303493
:1008F8000034313400343234003433340034343486
:100908000034353400343634003437340034383465
:0609180000343934003404
:020000040001F9
:04000E0084CFFFDAC2
:00000001FF
